{
  "_format": "hh-sol-artifact-1",
  "contractName": "Transactions",
  "sourceName": "contracts/Transactions.sol",
  "abi": [
    {
      "anonymous": false,
      "inputs": [
        {
          "indexed": false,
          "internalType": "address",
          "name": "from",
          "type": "address"
        },
        {
          "indexed": false,
          "internalType": "address",
          "name": "receiver",
          "type": "address"
        },
        {
          "indexed": false,
          "internalType": "uint256",
          "name": "amount",
          "type": "uint256"
        },
        {
          "indexed": false,
          "internalType": "string",
          "name": "message",
          "type": "string"
        },
        {
          "indexed": false,
          "internalType": "uint256",
          "name": "timestamp",
          "type": "uint256"
        },
        {
          "indexed": false,
          "internalType": "string",
          "name": "account",
          "type": "string"
        },
        {
          "indexed": false,
          "internalType": "string",
          "name": "keyword",
          "type": "string"
        }
      ],
      "name": "Transfer",
      "type": "event"
    },
    {
      "inputs": [],
      "name": "getAllTransactions",
      "outputs": [
        {
          "components": [
            {
              "internalType": "address",
              "name": "sender",
              "type": "address"
            },
            {
              "internalType": "address",
              "name": "receiver",
              "type": "address"
            },
            {
              "internalType": "uint256",
              "name": "amount",
              "type": "uint256"
            },
            {
              "internalType": "string",
              "name": "message",
              "type": "string"
            },
            {
              "internalType": "uint256",
              "name": "timestamp",
              "type": "uint256"
            },
            {
              "internalType": "string",
              "name": "account",
              "type": "string"
            },
            {
              "internalType": "string",
              "name": "keyword",
              "type": "string"
            }
          ],
          "internalType": "struct Transactions.TransferStruct[]",
          "name": "",
          "type": "tuple[]"
        }
      ],
      "stateMutability": "view",
      "type": "function"
    },
    {
      "inputs": [],
      "name": "getTransactionCount",
      "outputs": [
        {
          "internalType": "uint256",
          "name": "",
          "type": "uint256"
        }
      ],
      "stateMutability": "view",
      "type": "function"
    },
    {
      "inputs": [
        {
          "internalType": "address payable",
          "name": "receiver",
          "type": "address"
        },
        {
          "internalType": "uint256",
          "name": "amount",
          "type": "uint256"
        },
        {
          "internalType": "string",
          "name": "message",
          "type": "string"
        },
        {
          "internalType": "string",
          "name": "account",
          "type": "string"
        },
        {
          "internalType": "string",
          "name": "keyword",
          "type": "string"
        }
      ],
      "name": "transfer",
      "outputs": [],
      "stateMutability": "nonpayable",
      "type": "function"
    }
  ],
  "bytecode": "0x608060405234801561001057600080fd5b50610db9806100206000396000f3fe608060405234801561001057600080fd5b50600436106100415760003560e01c806327506f53146100465780632e7700f014610064578063754091e714610082575b600080fd5b61004e61009e565b60405161005b9190610a2b565b60405180910390f35b61006c610373565b6040516100799190610a4d565b60405180910390f35b61009c600480360381019061009791906106e8565b61037c565b005b60606001805480602002602001604051908101604052809291908181526020016000905b8282101561036a57838290600052602060002090600702016040518060e00160405290816000820160009054906101000a900473ffffffffffffffffffffffffffffffffffffffff1673ffffffffffffffffffffffffffffffffffffffff1673ffffffffffffffffffffffffffffffffffffffff1681526020016001820160009054906101000a900473ffffffffffffffffffffffffffffffffffffffff1673ffffffffffffffffffffffffffffffffffffffff1673ffffffffffffffffffffffffffffffffffffffff168152602001600282015481526020016003820180546101ab90610c40565b80601f01602080910402602001604051908101604052809291908181526020018280546101d790610c40565b80156102245780601f106101f957610100808354040283529160200191610224565b820191906000526020600020905b81548152906001019060200180831161020757829003601f168201915b505050505081526020016004820154815260200160058201805461024790610c40565b80601f016020809104026020016040519081016040528092919081815260200182805461027390610c40565b80156102c05780601f10610295576101008083540402835291602001916102c0565b820191906000526020600020905b8154815290600101906020018083116102a357829003601f168201915b505050505081526020016006820180546102d990610c40565b80601f016020809104026020016040519081016040528092919081815260200182805461030590610c40565b80156103525780601f1061032757610100808354040283529160200191610352565b820191906000526020600020905b81548152906001019060200180831161033557829003601f168201915b505050505081525050815260200190600101906100c2565b50505050905090565b60008054905090565b600160008082825461038e9190610b24565b9250508190555060016040518060e001604052803373ffffffffffffffffffffffffffffffffffffffff1681526020018773ffffffffffffffffffffffffffffffffffffffff16815260200186815260200185815260200142815260200184815260200183815250908060018154018082558091505060019003906000526020600020906007020160009091909190915060008201518160000160006101000a81548173ffffffffffffffffffffffffffffffffffffffff021916908373ffffffffffffffffffffffffffffffffffffffff16021790555060208201518160010160006101000a81548173ffffffffffffffffffffffffffffffffffffffff021916908373ffffffffffffffffffffffffffffffffffffffff1602179055506040820151816002015560608201518160030190805190602001906104d39291906105ab565b506080820151816004015560a08201518160050190805190602001906104fa9291906105ab565b5060c08201518160060190805190602001906105179291906105ab565b5050507f21ec5b3f3e6c597e1a0d1650e5545618667a89bf7d7341cc53e38673d3dede323386868642878760405161055597969594939291906109a7565b60405180910390a18473ffffffffffffffffffffffffffffffffffffffff166108fc859081150290604051600060405180830381858888f193505050501580156105a3573d6000803e3d6000fd5b505050505050565b8280546105b790610c40565b90600052602060002090601f0160209004810192826105d95760008555610620565b82601f106105f257805160ff1916838001178555610620565b82800160010185558215610620579182015b8281111561061f578251825591602001919060010190610604565b5b50905061062d9190610631565b5090565b5b8082111561064a576000816000905550600101610632565b5090565b600061066161065c84610a8d565b610a68565b90508281526020810184848401111561067d5761067c610d35565b5b610688848285610bfe565b509392505050565b60008135905061069f81610d55565b92915050565b600082601f8301126106ba576106b9610d30565b5b81356106ca84826020860161064e565b91505092915050565b6000813590506106e281610d6c565b92915050565b600080600080600060a0868803121561070457610703610d3f565b5b600061071288828901610690565b9550506020610723888289016106d3565b945050604086013567ffffffffffffffff81111561074457610743610d3a565b5b610750888289016106a5565b935050606086013567ffffffffffffffff81111561077157610770610d3a565b5b61077d888289016106a5565b925050608086013567ffffffffffffffff81111561079e5761079d610d3a565b5b6107aa888289016106a5565b9150509295509295909350565b60006107c383836108df565b905092915050565b6107d481610bc8565b82525050565b6107e381610b7a565b82525050565b6107f281610b7a565b82525050565b600061080382610ace565b61080d8185610af1565b93508360208202850161081f85610abe565b8060005b8581101561085b578484038952815161083c85826107b7565b945061084783610ae4565b925060208a01995050600181019050610823565b50829750879550505050505092915050565b600061087882610ad9565b6108828185610b02565b9350610892818560208601610c0d565b61089b81610d44565b840191505092915050565b60006108b182610ad9565b6108bb8185610b13565b93506108cb818560208601610c0d565b6108d481610d44565b840191505092915050565b600060e0830160008301516108f760008601826107da565b50602083015161090a60208601826107da565b50604083015161091d6040860182610989565b5060608301518482036060860152610935828261086d565b915050608083015161094a6080860182610989565b5060a083015184820360a0860152610962828261086d565b91505060c083015184820360c086015261097c828261086d565b9150508091505092915050565b61099281610bbe565b82525050565b6109a181610bbe565b82525050565b600060e0820190506109bc600083018a6107e9565b6109c960208301896107cb565b6109d66040830188610998565b81810360608301526109e881876108a6565b90506109f76080830186610998565b81810360a0830152610a0981856108a6565b905081810360c0830152610a1d81846108a6565b905098975050505050505050565b60006020820190508181036000830152610a4581846107f8565b905092915050565b6000602082019050610a626000830184610998565b92915050565b6000610a72610a83565b9050610a7e8282610c72565b919050565b6000604051905090565b600067ffffffffffffffff821115610aa857610aa7610d01565b5b610ab182610d44565b9050602081019050919050565b6000819050602082019050919050565b600081519050919050565b600081519050919050565b6000602082019050919050565b600082825260208201905092915050565b600082825260208201905092915050565b600082825260208201905092915050565b6000610b2f82610bbe565b9150610b3a83610bbe565b9250827fffffffffffffffffffffffffffffffffffffffffffffffffffffffffffffffff03821115610b6f57610b6e610ca3565b5b828201905092915050565b6000610b8582610b9e565b9050919050565b6000610b9782610b9e565b9050919050565b600073ffffffffffffffffffffffffffffffffffffffff82169050919050565b6000819050919050565b6000610bd382610bda565b9050919050565b6000610be582610bec565b9050919050565b6000610bf782610b9e565b9050919050565b82818337600083830152505050565b60005b83811015610c2b578082015181840152602081019050610c10565b83811115610c3a576000848401525b50505050565b60006002820490506001821680610c5857607f821691505b60208210811415610c6c57610c6b610cd2565b5b50919050565b610c7b82610d44565b810181811067ffffffffffffffff82111715610c9a57610c99610d01565b5b80604052505050565b7f4e487b7100000000000000000000000000000000000000000000000000000000600052601160045260246000fd5b7f4e487b7100000000000000000000000000000000000000000000000000000000600052602260045260246000fd5b7f4e487b7100000000000000000000000000000000000000000000000000000000600052604160045260246000fd5b600080fd5b600080fd5b600080fd5b600080fd5b6000601f19601f8301169050919050565b610d5e81610b8c565b8114610d6957600080fd5b50565b610d7581610bbe565b8114610d8057600080fd5b5056fea26469706673582212209f65cea3554407fe304cd0eff35b9497b5c23e399d6894a1b8973dbea137c57e64736f6c63430008070033",
  "linkReferences": {},
  "deployedLinkReferences": {}
}